:020000040800F2
:1000000038180020010100081F0F00085D0E0008CD
:100010001D0F00084B020008E10F0008000000005F
:10002000000000000000000000000000430F000876
:100030004D02000800000000410F0008450F0008B5
:100040001B0100081B0100081B0100081B01000820
:100050001B0100081B0100081B0100081B01000810
:100060001B0100081B0100081B0100081B01000800
:100070001B0100081B0100081B0100081B010008F0
:100080001B0100081B0100081B0100081B010008E0
:100090001B0100081B0100081B0100081B010008D0
:1000A0001B0100081B0100081B0100081B010008C0
:1000B0001B0100081B0100081B0100081B010008B0
:1000C0001B0100081B0100081B0100081B010008A0
:1000D0001B0100081B0100081B0100081B01000890
:1000E0001B0100081B0100081B010008DFF80CD0F1
:1000F00000F08AF8004800479914000838180020DA
:100100000648804706480047FEE7FEE7FEE7FEE7B1
:10011000FEE7FEE7FEE7FEE7FEE7FEE7990F0008D1
:10012000ED000008202A04DB203A21FA02F0002129
:10013000704721FA02F3D040C2F1200291400843F7
:100140001946704740EA01039B0703D009E008C93C
:10015000121F08C0042AFAD203E011F8013B00F88C
:10016000013B521EF9D27047D2B201E000F8012BD8
:10017000491EFBD270470022F6E710B513460A4627
:1001800004461946FFF7F0FF204610BD30B504467F
:100190000020034600E05B1C934203D2E05CCD5C90
:1001A000401BF8D030BD2DE9F05F05460020924697
:1001B0009B4688460646814640241BE02846414629
:1001C00047462246FFF7AEFF53465A46C01A9141B2
:1001D00010D311461846224600F028F82D1A67EB76
:1001E00001084F4622460120002100F01FF817EBBE
:1001F00000094E41201EA4F10104DFDC48463146CF
:100200002A464346BDE8F09F064C074D06E0E068ED
:1002100040F0010394E8070098471034AC42F6D34D
:10022000FFF768FF2C1500084C150008202A04DB96
:10023000203A00FA02F1002070479140C2F12003F9
:1002400020FA03F3194390407047FEE7704700001F
:10025000064A0021D16106490A6942F002020A6198
:100260004861086940F040000861704718080020A4
:1002700000200240044B0022DA61044A136943F073
:10028000010313610180704718080020002002401C
:1002900014480022C168CB06134904D5CA6942F04C
:1002A0000202CA611022C3685B0705D5CB6943F01F
:1002B0000103CB6142F00402C369DB0707D0CB69BD
:1002C00043F00403CB61C16921F00101C161A2F5D2
:1002D0008071013901D0C2607047C16921F001010C
:1002E000C1617047002002401808002070B5054623
:1002F00000F0A2FA0646114C09E0681C07D025B1AF
:1003000000F09AFA801BA84201D9032070BDE06872
:10031000C007F2D1E068800601D52020E060E068E7
:10032000C00605D4E069C00702D1E068400703D5E4
:10033000FFF7AEFF012070BD002070BD002002401D
:10034000F0B50F4D00248318AB4217D8C30705D072
:1003500030F8013C01241B0A0B70401C0023551E81
:10036000171B09E01E19C25A8A55AE4202DA0E4422
:10037000120A72709B1C9BB29F42F3DCF0BD00001E
:10038000000002082DE9F04FC0F30903C61A8946A0
:10039000831B2749ADF2044D9FB215464FF001086B
:1003A000884241D32349104488423DD2002D3BD09E
:1003B00000F04AF9EB464FF4806A00205946524655
:1003C00033580B50001D80B29042F9D30024C81955
:1003D00005E000BF19F804100155641CA4B2E1192E
:1003E000514501D2AC42F5D33046FFF731FF4CF214
:1003F000503703E03846FFF779FF8046B8F1000F29
:10040000F8D10D48016921F00201016152466946A7
:10041000304600F013F82D1BA1444FF0000706F5FD
:100420008066CAD100F0C6F80DF2044DBDE8F08F29
:100430000000010800000208002002402DE9F04100
:1004400017460E46804600240CE000BF08EB04056A
:10045000325929460023022000F0B6F80028F7D1CF
:10046000241DA4B2BC42F1D3BDE8F08170B51A4995
:1004700000204FF480650854401C80B2A842FAD393
:1004800016A000F0AFFD1B4C1B4E21461BA000F038
:10049000A9FD2A4610492046FFF774FF2A461D4948
:1004A0002046FFF74DFF2A461A490B48FFF76EFE1C
:1004B000214620B118A000F095FD1FA007E02AA05A
:1004C00000F090FD04F58064B442DED32DA0BDE8B9
:1004D000704000F087BD000014000020BFAACABC15
:1004E00020466C61736820B2E2CAD42E2E2E0D0A0B
:1004F000000000000000010800000208D5FDD4DA69
:10050000B2E2CAD4B5D8D6B73A20307825303858B8
:100510000D0A000014040020CAFDBEDDD1E9D6A4F6
:10052000CAA7B0DCA3ACB5D8D6B73A20307825300E
:1005300038580D0A00000000466C61736820D1E94C
:10054000D6A4CAA7B0DCA3ACC7EBBCECB2E9C5E447
:10055000D6C3BBF2D0BEC6ACCAB5BCCAC8DDC1BF2B
:10056000A1A30D0A00000000B5D8D6B72030782529
:1005700030385820B2E2CAD4CDA8B9FDA1A30D0AE3
:10058000000000003132384B4220466C6173682015
:10059000D1E9D6A4B3C9B9A6A3ACCBF9D3D0B5D809
:1005A000D6B7BEF9CDA8B9FDB2E2CAD4A1A30D0A4F
:1005B000000000000348016941F080010161002052
:1005C00070470000002002402DE9F05F07461C48FC
:1005D00088460024017E15461E46012909D00121C6
:1005E000814601764CF2503A5046FFF77FFE18B133
:1005F00022E00220BDE8F09F012F02D0022F00D0A0
:100600000427D346DFF83CA0220128463146FFF7F5
:1006100089FD81B208EB4400FFF72CFE5846FFF736
:1006200065FEDAF8102022F00102CAF8102018B98D
:10063000641CE4B2BC42E7D3002289F81820D9E751
:100640001808002000200240064900200A6912060E
:1006500007D5054A4A60054A4A600969090600D576
:10066000012070470020024023016745AB89EFCD90
:100670002DE9F84FDFF890A100220AF1040B14468F
:1006800001274FF00F090BF1040E00BF0B6807FAAA
:1006900004F52B40AB4274D1DFF870C14E68A6EB75
:1006A0000C0866452BD00DDC032E34D005DC36B3A8
:1006B000012E19D0022E2FD11BE0112E16D0122E92
:1006C0002AD119E0B8F5881F19D006DCB8F5803FAB
:1006D00015D0B8F5801F1FD111E0B8F5001F0ED05E
:1006E000B8F5041F18D10AE0CA6815E0CA68121DDF
:1006F00012E0CA6808320FE0CA680C320CE08A685F
:100700002AB1012A4FF0080203D0456104E0042217
:1007100002E0056100E00022FF2B01D8064601E05F
:1007200000F104064FEA840501D9A5F12005D6F8A9
:1007300000C009FA05F82CEA080C02FA05F54CEAA3
:10074000050CC6F800C04D68ED0057D5304DAE69B8
:1007500046F00106AE61AD6924F0030605F001051F
:1007600000952C4D06EB050CDCF80850A6074FEA67
:10077000167809FA08F6B543274EB04202D1002692
:1007800010E03BE0254EB04201D101260AE0244EA4
:10079000B04201D1022605E0224EB04201D103262B
:1007A00000E0042606FA08F62E43CCF808604D68EF
:1007B000DAF80060ED03554601D51E4300E09E4384
:1007C0002E604D68DBF80060AD035D4601D51E4329
:1007D00000E09E432E604D68DEF80060ED02754635
:1007E00001D51E4300E09E432E604D68AD020E4DC4
:1007F0002E6801D51E4300E09E432E60641C102C21
:10080000FFF444AFBDE8F88F000401400000111070
:10081000001002400000014000080140000C0140AF
:1008200000100140001401400C0401400AB10161B4
:1008300070470904FBE7000001488068704700002A
:1008400000000020024881680278114481607047EE
:1008500000000020074810B5016841F01001016058
:10086000032000F067F8002000F006F800F024F8FC
:10087000002010BD0020024070B50D4D04464FF41D
:100880007A712878B1FBF0F00A490968B1FBF0F001
:1008900000F0D0FA48B9102C07D200222146501E91
:1008A00000F028F800206C6070BD012070BD0000D1
:1008B000000000200C0000200C4808B5816941F0C0
:1008C00001018161816901F001010091C16941F07B
:1008D0008051C161C06900F08050009004484168B7
:1008E00021F0E06141F00071416008BD001002405C
:1008F00000000140F0B40E4B1B680C46C3F302230A
:10090000C3F10705042D00D90425191D072901D2BB
:10091000002300E0DB1E012606FA05F1491E2140F6
:1009200099409E40761E16403143F0BC00F0F8BA64
:100930000CED00E0064900F0070208684FF6FF03DF
:10094000184040EA0220034A104308607047000044
:100950000CED00E00000FA052DE9F047DFF85481C6
:1009600005460E46D8F8000000F00700B0420CD251
:10097000D8F8001021F007013143C8F80010D8F86A
:10098000000000F00700B0426FD128684A4C810790
:1009900012D5400703D5606840F4E06060602878B5
:1009A000000703D5606840F4605060606068A96823
:1009B00020F0F000084360602878C00744D06868E1
:1009C000012816D02168022816D0890700294CDAA0
:1009D000616821F0030101436160FFF72DFF696841
:1009E000074641F2883001290ED00229814618D0ED
:1009F00026E021688903E9E78901E7E7FFF71CFFA3
:100A0000C11B494501D918E081466068C0F38100E7
:100A10000128F3D118E000BFFFF70EFFC11B4945C5
:100A20000BD86068C0F381000228F5D10CE000BF4C
:100A3000FFF702FFC11B494502D90320BDE8F0873B
:100A4000606810F00C0FF3D1D8F80010404601F0A8
:100A50000701B1420BD9016821F007013143016060
:100A6000006800F00700B04201D00120E6E72878D6
:100A7000400705D56068E96820F4E06008436060DD
:100A80002878000706D56068296920F4605040EA9C
:100A9000C100606000F016F86168084AC1F30311F4
:100AA000515CC840064908600020FFF7E5FE0020C1
:100AB000C4E7000000200240001002401C1500089E
:100AC0000C00002012A185B00FC98DE80F0014A002
:100AD000144A006804905168134801F00C03042B79
:100AE00010D0082B0ED1C1F38343C9031DF80300B6
:100AF0000AD5516804AAC1F34041515C0A4A5043E7
:100B0000B0FBF1F005B0704708494843FAE7000030
:100B100002030405060708090A0B0C0D0E0F10103E
:100B2000010200000010024000127A0000093D009E
:100B30002DE9F84F04460078B94DC00748D06868E1
:100B4000C0F38100012807D06868C0F38100022843
:100B500009D16868C00306D52868800338D5606865
:100B600000286FD034E06068B0F5803F0BD010B142
:100B7000B0F5A02F11D0286820F4803028602868B4
:100B800020F4802002E0286840F48030286060680B
:100B900088B1FFF751FE064609E0286840F480203E
:100BA0002860F0E7FFF748FE801B642875D82868A6
:100BB0008003F7D50CE0FFF73FFE064605E000BFD7
:100BC000FFF73AFE801B6428F0D828688003F7D42A
:100BD0002078944E80074FF001094FF000083BD574
:100BE000686810F00C0F07D06868C0F38100022815
:100BF00009D16868C00306D42868800714D5206925
:100C000001281FD110E02069B0B1C6F80090FFF7AD
:100C100013FE074605E000BFFFF70EFEC01B0228CB
:100C2000C4D828688007F7D52868616920F0F800E3
:100C300040EAC10028600FE0C6F80080FFF7FCFD25
:100C4000074606E0E9E000BFFFF7F6FDC01B0228FB
:100C500023D828688007F7D4207800072CD572485D
:100C6000A169D9B1C0F80090FFF7E6FD074604E09E
:100C7000FFF7E2FDC01B02280FD8686A8007F7D58E
:100C80006A484FF4FA510068B0FBF1F0009000BFE1
:100C90000098411E0091FAD20EE080E0C0F800807A
:100CA000FFF7CAFD074604E0FFF7C6FDC01B022898
:100CB00075D8686A8007F7D42078400760D5E8695E
:100CC0000027C00008D4E86940F08050E861E86976
:100CD000012700F08050009055480168C90513D4E1
:100CE0000168834641F480710160FFF7A5FD8246EB
:100CF00006E000BFFFF7A0FDA0EB0A0064284ED875
:100D0000DBF80000C005F5D5E06801280AD008B17D
:100D1000052813D0286A20F001002862286A20F0F4
:100D2000040002E0286A40F001002862E06841F215
:100D3000883B98B1FFF780FD82460BE0286A40F0BF
:100D400004002862EEE700BFFFF776FDA0EB0A0182
:100D500059455AD8286A8007F6D50CE0FFF76CFD94
:100D6000824605E0FFF768FDA0EB0A0159454CD823
:100D7000286A8007F6D41FB1E86920F08050E86146
:100D8000E06988B36968C1F38101022945D002286E
:100D9000C6F8608004D0FFF74FFD044638E034E029
:100DA000FFF74AFD074604E0FFF746FDC01B022897
:100DB0002BD828688001F7D4206AB0F5803F05D190
:100DC0006868A16820F4003008436860D4E908012D
:100DD0000843696821F4741108436860C6F860909C
:100DE000FFF72AFD044606E015E000BFFFF724FDEB
:100DF000001B022809D828688001F7D50BE000BF46
:100E0000FFF71AFD001B022802D90320BDE8F88F66
:100E100028688001F4D40020F8E70120F6E70000FC
:100E20000010024000004242800442420C000020B8
:100E30000070004010B5401EB0F1807F01D301204A
:100E400010BD4FF0E02460610F21601700F068F8DA
:100E50000020A06107202061002010BDFEE70000F7
:100E600070B586B00024294800940194029403943C
:100E7000816941F010018161816901F010010491E3
:100E8000816941F020018161816901F020010491B3
:100E9000816941F004018161816901F004010491DB
:100EA000816941F0080181618069194E00F00800F4
:100EB0004FF400550490002229463046FFF7B6FC57
:100EC00001200095CDE901040220039069463046D7
:100ED000FFF7CEFB4FF440400324CDE90004694600
:100EE0003046FFF7C5FB49F6FF70CDE900046946BF
:100EF0000848FFF7BDFB4FF6FF70CDE900046946D7
:100F00000548FFF7B5FB06B070BD000000100240B9
:100F10000010014000080140000C0140FEE770474E
:100F20000907090E002806DA00F00F0000F1E020A2
:100F300080F8141D704700F1E02080F8001470471D
:100F400070477047FFF77EBC30B58FB028216846E8
:100F5000FFF711F914210AA8FFF70DF90121080480
:100F6000CDE900100024029402250491CDE9075038
:100F70004FF4E01009906846FFF7DAFD0F20CDE945
:100F80000A056802CDE90C4002210AA80E94FFF779
:100F9000E3FC0FB030BD00000D48016841F00101D5
:100FA000016041680B4A1140416001680A4A1140E2
:100FB0000160016821F480210160416821F4FE0193
:100FC00041604FF41F0181600449C003086070470D
:100FD000001002400000FFF8FFFFF6FE08ED00E001
:100FE000FEE700000FB4054B10B503A9044A0298B0
:100FF00000F018F810BC5DF814FB0000871400081E
:101000001000002002E008C8121F08C1002AFAD10F
:1010100070477047002001E001C1121F002AFBD178
:10102000704700002DE9FF4F8DB00F4605460026A2
:1010300006E025280BD0DDE90F1290476D1C761CC9
:1010400028780028F5D111B03046BDE8F08F002493
:10105000A246A1460122EC4900E0044315F8013FF5
:10106000203B02FA03F00842F7D128782A2810D052
:101070006FF02F022878A0F13001092914D80AEB6B
:101080008A0102EB410144F0020400EB010A6D1CED
:10109000F0E701CF5FEA000A03D544F40054CAF137
:1010A000000A44F002046D1C28782E2817D115F888
:1010B000010F44F004042A280ED06FF02F02287884
:1010C000A0F1300109290AD809EB890102EB41019D
:1010D00000EB01096D1CF2E757F8049B6D1C2878A2
:1010E0006C280FD006DC4C2817D068280DD06A2851
:1010F00014D104E0742810D07A280FD10DE044F404
:1011000000140AE044F4801401E044F440146978C7
:10111000814202D104F580146D1C6D1C2A786E2A60
:101120001FD00CDC632A31D004DC002A8BD0582A73
:1011300011D1A3E0642A68D0692A0CD165E0732A32
:101140002ED004DC6F2A73D0702A04D19BE0752A5C
:101150006FD0782A6ED01046DDE90F129047761CCA
:1011600050E1C4F30250022806D0032809D0042815
:1011700001CF09D0066045E101CFF117C0E9006158
:1011800040E101CF06803DE106703BE117F8040B1A
:101190008DF8000000208DF80100EB46012003E0EF
:1011A00057F804BB4FF0FF3061074FF0000102D445
:1011B0000DE008F10101884649450FDA8045F8DB6A
:1011C0001BF808100029F4D108E008F10101884655
:1011D0008142FADB1BF808100029F6D1DDE90F2364
:1011E000AAEB08008146214600F036F9304400EBB6
:1011F000080604E0DDE90F121BF8010B9047B8F177
:101200000108F7D221464846F7E00A21C4F3025309
:101210004FF0000B0891022B04D001CFC117032B14
:1012200009D00AE0FF1D27F00707F7E8020108E0F0
:1012300032E01FE020E000B2C117042B01D140B220
:10124000C117031E71F1000307DA4FF0000CD0EB59
:101250000C006CEB01012D2302E0230504D52B23A8
:101260008DF82430012303E0E30701D02023F7E7C2
:10127000984658E00A2110E010210EE010204FF0AF
:10128000000B08900CE010214FF0000B44F0040418
:101290004FF00809089103E008214FF0000B089176
:1012A000C4F30253022B04D001CF0021032B06D03C
:1012B00006E0FF1D27F00707F7E8020103E080B210
:1012C000042B00D1C0B24FF0000823072BD5702AA1
:1012D00007D0DDF820C08CF0100C5CEA0B0C05D0B8
:1012E0000EE040238DF82430012308E050EA01038A
:1012F00006D030238DF824308DF82520022398461F
:10130000DDF820C08CF0080C5CEA0B0C0BD150EA25
:10131000010301D1630706D530238DF824304FF047
:101320000108A9F10109582A04D038A20B9208AA91
:101330000A920BE03AA2F9E75B46089AFEF733FF00
:101340000B9B9B5C0A9A521E0A92137050EA010290
:10135000F2D10A98ADEB000000F1200B600702D536
:1013600024F4803401E04FF00109D94502DDA9EBF6
:101370000B0000E0002000EB0B0141440890AAEBB9
:10138000010AE00306D4DDE90F232146504600F0B0
:1013900063F806444FF0000908E009A911F80900B4
:1013A000DDE90F12904709F10109761CC145F4DB14
:1013B000E0030CD5DDE90F232146504600F04CF840
:1013C000064404E0DDE90F1230209047761C0899AE
:1013D000481E08900029F5DC08E00A980A99007870
:1013E000491C0A91DDE90F129047761CBBF1000100
:1013F000ABF1010BF1DC21465046DDE90F2300F093
:1014000019F806446D1C1BE60928010030313233FF
:101410003435363738396162636465660000000030
:10142000303132333435363738394142434445461A
:10143000000000002DE9F041044600251E46174635
:10144000880404D405E039462020B0476D1C641E92
:10145000F9D52846BDE8F0812DE9F0410446002584
:101460001E469046C80301D5302700E02027880497
:1014700004D505E041463846B0476D1C641EF9D5D9
:101480002846BDE8F08138B504468DF8000069466D
:101490000320ABBE204638BD8AB0282212A1684680
:1014A000FEF750FEFFF7D6F9FFF74EFD26226946FC
:1014B0001748FEF767FF174900200854401CC0B2C8
:1014C000FF28FAD3124CFF22263412492046FEF799
:1014D00059FFFF2210492046FEF732FFFEF7C6FFF4
:1014E000FFF7BEFCFEE7000048656C6C6F20546897
:1014F00069732069732053554E5955414E20466CEF
:1015000061736820546573742044454D4F0000009A
:1015100000C0010814000020140400200000000096
:101520000000000001020304060708094C1500082A
:1015300000000020140000000410000860150008DE
:1015400014000020241800001410000801000000FE
:10155000100000000000000000A24A04000000008B
:04000005080000ED02
:00000001FF
